:100000005CC0000081C000007FC000007DC0000017
:100010007BC0000079C0000077C0000075C0000000
:1000200073C0000071C000006FC000006DC0000010
:100030006BC0000009C3000067C0000065C000007D
:100040000C947C0861C000000C94D80A0C940A0B34
:100050005BC0000059C0000057C0000055C0000040
:1000600053C0000051C00000000000080002010061
:100070000003040700000000000000000102040863
:100080001020408001020408102001020408102002
:10009000040404040404040402020202020203032E
:1000A0000303030300000000250028002B000000CC
:1000B0000000240027002A002F0B11241FBECFEFC1
:1000C000D8E0DEBFCDBF11E0A0E0B1E0E6E6F7E1A9
:1000D00002C005900D92AE35B107D9F722E0AEE52A
:1000E000B1E001C01D92A638B207E1F710E0CDE5FE
:1000F000D0E004C02197FE010E94AB0BCC35D107A4
:10010000C9F73ED30C94B10B7BCFCF93DF938823F9
:1001100049F0EB0181500E94010999838883DF91A6
:10012000CF910895FB0111821082F9CF0F931F9395
:100130008B019C0183E036952795179507958A9545
:10014000D1F7025A1E4F462F477021E030E0F901E7
:1001500002C0EE0FFF1F4A95E2F7AF01F8012081C0
:100160002423CB010196211102C090E080E01F9171
:100170000F9108950F931F938B019C0183E0369597
:100180002795179507958A95D1F7677081E090E0DC
:1001900001C0880F6A95EAF7F801E25AFE4F208104
:1001A000452B31F48095822380831F910F91089510
:1001B000822BFACFCF92DF92EF92FF92CF93DF9311
:1001C0006B017C0160E08EE0C816D104E104F1040B
:1001D00090F48EE08C0D0E944509E6012196AE0157
:1001E000C701B601C7DFCE01DF91CF91FF90EF903D
:1001F000DF90CF9008958C2DEECF882341F0815071
:10020000682F70E090E080E050E040E0B3CF0895C8
:10021000611102C00C9445096130E1F362E0FACF4C
:10022000662319F061E00C94810960E0FCCFFC01C9
:1002300091E040916D0150916E0160916F0170915C
:100240007001452B462B472B09F090E091830895D0
:10025000CF92DF92EF92FF920F931F9380916D01E7
:1002600090916E01A0916F01B09170010196A11D56
:10027000B11D843F21E09207A105B10508F0F6C049
:1002800080936D0190936E01A0936F01B093700104
:10029000C0900001D0900101E0900201F0900301B4
:1002A000A701960160913102709132028091330270
:1002B0009091340285D5882341F0C0923102D092CA
:1002C0003202E0923302F092340262E170E080E0A8
:1002D00090E02CDF9093300280932F0243E050E0B7
:1002E00060E872E012DF609180027091810290E01C
:1002F00080E096D5209108013091090140910A01D2
:1003000050910B0196D620910C0130910D01409136
:100310000E0150910F018DD62091100130911101E5
:100320004091120150911301D4D4609378027093DC
:10033000790280937A0290937B02C0900401D0905E
:100340000501E0900601F0900701A7019601609178
:10035000250270912602809127029091280230D5C3
:10036000882341F0C0922502D0922602E092270213
:10037000F092280263E170E080E090E0D7DE909395
:1003800024028093230243E050E060E872E0BDDE87
:10039000609180027091810290E080E041D52091CF
:1003A000140130911501409116015091170141D669
:1003B000209118013091190140911A0150911B01AF
:1003C00038D620911C0130911D0140911E015091A1
:1003D0001F017FD460937C0270937D0280937E0224
:1003E00090937F0282E5E82E82E0F82E0EE412E080
:1003F00023E832E044E752E06CE772E088E792E0FD
:1004000035D260917402709175028091760290915C
:10041000770217D46B017C01C0927802D0927902E6
:10042000E0927A02F0927B0220E030E040E853E470
:10043000C7D487FF27C020E030E0A901C701B6017B
:10044000F4D587FD1CC0C701B601BED460938202FB
:100450006091820289E0E4DE609183028AE01F916C
:100460000F91FF90EF90DF90CF90DACE10926D0158
:1004700010926E0110926F011092700109CF1092CC
:100480008202E6CF8FEF80938202E2CF61E080911B
:100490004D02811160E060934D028DE0C1CEAF92BC
:1004A000BF92CF92DF92EF92FF921F93CF93DF9391
:1004B00062E772E087E691E0C0D3CDE1D2E080E070
:1004C000A82E81E0B82EF50180A188AB82E592E0EC
:1004D0008ED11C86F50180819181A281B3818C8BA4
:1004E0009D8BAE8BBF8B198AC12CD12C7601C39406
:1004F000CD86DE86EF86F88A62E170E080E090E0EB
:1005000059DE9B8B8A8B11E0198B1882F50184814F
:100510009581A681B78188879987AA87BB871D8225
:10052000C982DA82EB82FC8263E170E080E090E0D5
:1005300041DE9F838E831D8318A6C9A6DAA6EBA68B
:10054000FCA661E089E064DE1DA718A2C9A2DAA2B8
:10055000EBA2FCA261E08AE05BDE1DA3188EC98ECF
:10056000DA8EEB8EFC8E61E08DE052DE1D8FDF9126
:10057000CF911F91FF90EF90DF90CF90BF90AF9001
:1005800008958091290281111DC081E08093290284
:1005900080912A0290912B02A0912C02B0912D0201
:1005A0000197A105B10571F480912E02882351F0C5
:1005B00062E170E080E090E0B9DD909330028093DA
:1005C0002F021BDE80911D0281111DC081E08093EE
:1005D0001D0280911E0290911F02A0912002B091F5
:1005E00021020197A105B10571F4809122028823AF
:1005F00051F063E170E080E090E098DD9093240298
:1006000080932302FADD80914502811103C081E0CD
:100610008093450280913D02811103C081E0809367
:100620003D0280913502811103C081E08093350243
:10063000089540E855E260E070E090E080E000C09E
:1006400026E080E891E054C71F920F920FB60F92F8
:1006500011242F933F934F935F936F937F938F93C7
:100660009F93AF93BF93EF93FF9386E09FEF909399
:1006700085008093840032D0FF91EF91BF91AF91BC
:100680009F918F917F916F915F914F913F912F91AA
:100690000F900FBE0F901F90189586E09FEF9093DC
:1006A000850080938400AFE6B0E08C918E7F8C93C0
:1006B000E0E8F0E080818C7F8083E1E8F0E08081F9
:1006C000877E808380818360808380818B7F80832D
:1006D0008C9181608C93089581E00895CF93DF938E
:1006E00000D0CDB7DEB78091730191E0980F909361
:1006F0007301882369F021E030E030937601209384
:100700007501809373010F900F90DF91CF91089541
:10071000CE0101968CDD78949BDDF8948091730175
:100720008150809373018A81882389F080917201BE
:1007300091E0980F90937201882349F021E030E016
:10074000309376012093750180937201DCCF809104
:1007500072018823C1F2809174018111D4CF81E0AC
:1007600080937401789492DEF894809172018150A4
:100770008093720180917401815080937401C3CF82
:10078000CF93DF931092850210928402FFD451DF41
:10079000C0914A01D0914B011982188280DEF894F1
:1007A0007CDF81E028813981232B09F080E0809370
:1007B00084027894789480918402811107C0E1DEEC
:1007C000F89490E080E0DF91CF91089581E0288156
:1007D0003981232B09F480E0809385029091850272
:1007E00081E0911180E08093840276DFE4CFFC0108
:1007F000A1E2B1E04D915D916D917C9113974083A1
:1008000051836283738354964D915D916D917C9178
:100810005797448355836683778314964D915D91F2
:100820006D917C91179740875187628773871896DF
:100830004D915D916D917C911B974487558766879B
:10084000778790964D915D916D917C919397408BB8
:10085000518B628B738B1C968D919D910D90BC91E9
:10086000A02D848B958BA68BB78B08952F923F92EA
:100870004F925F926F927F928F929F92AF92BF92B0
:10088000CF92DF92EF92FF920F931F93CF93DF935C
:10089000CDB7DEB768970FB6F894DEBF0FBECDBFF9
:1008A0009C8B8B8B7E8B6D8B5A8349831901F88EC1
:1008B000EF8A209131013091320140913301509102
:1008C0003401DC016D917D918D919C91B2D3F80141
:1008D0006083718382839383D7012D913D914D91E4
:1008E0005C91F6D16B017C012091390130913A0184
:1008F00040913B0150913C01EF89F88D64817581F5
:100900008681978196D36B837C838D839E83AF8909
:10091000B88D18962D913D914D915C911B97FD01DD
:100920002083318342835383D3D16F837887898730
:100930009A8720913D0130913E0140913F015091B5
:100940004001AD89BE896D917D918D919C9171D34E
:100950006B877C878D879E87EF89F88D2485358509
:1009600046855785B5D14B015C01209145013091F9
:1009700046014091470150914801AF89B88D50968A
:100980006D917D918D919C91539753D36F87788B07
:10099000898B9A8BEF89F88D248935894689578907
:1009A000208331834283538393D12B013C01EF8910
:1009B000F88D848D811192C081E0848F858FD10163
:1009C0008C93118E108E82E0868F138E128E878FFD
:1009D000E981FA8110821182128213822F81388577
:1009E00049855A85C701B60173D19F7720E030E071
:1009F00040E055E2E5D118160CF411C1EF89F88DED
:100A0000808D918D0196918F808FA3019201C501F8
:100A1000B4015ED19F7720E030E040E055E2D0D1D4
:100A200018160CF403C1EF89F88D828D938D019611
:100A3000938F828FF80180819181A281B381EF89A8
:100A4000F88D80839183A283B383EB89FC898081B5
:100A50009181A281B381EF89F88D84839583A683E8
:100A6000B7838B819C81AD81BE8180879187A2876E
:100A7000B3878B859C85AD85BE8584879587A68742
:100A8000B787ED89FE8980819181A281B381EF8949
:100A9000F88D808B918BA28BB38B8F859889A989D8
:100AA000BA89848B958BA68BB78B68960FB6F89412
:100AB000DEBF0FBECDBFDF91CF911F910F91FF9091
:100AC000EF90DF90CF90BF90AF909F908F907F90EE
:100AD0006F905F904F903F902F900895A5019401E3
:100AE000C701B601F5D0A7019601A3D2AF89B88D91
:100AF0005D962C91213009F077C020E030E0A9010B
:100B00005FD187FF14C020E030E040E85FE3E98177
:100B1000FA81608171818281938152D1882339F079
:100B200082E0AF89B88D5D968C93F1011082EF89D8
:100B3000F88D868D813049F12F81388549855A8518
:100B4000C701B601C5D09F7720E030E040E055E214
:100B500037D1181634F4AF89B88D59961C921E926D
:100B60005897EF89F88D808D918D449774F021E02E
:100B7000268F80E090E0A0E8BFE3E981FA818083DE
:100B80009183A283B383D1012C93EF89F88D878D54
:100B9000813009F423CFA3019201C501B40198D09B
:100BA0009F7720E030E040E055E20AD1181634F497
:100BB000AF89B88D5B961C921E925A97EF89F88D7B
:100BC000828D938D44970CF409CF21E0278F80E02C
:100BD00090E0A0E8BFE3E981FA8180839183A2835A
:100BE000B383D1012C93FACE20E030E0A9011DD2CD
:100BF00087FD9DCF20E030E040E85FE3A981BA8126
:100C00006D917D918D919C91DBD0882309F48FCFDC
:100C100081E0EF89F88D858FD1018C9388CFAF89E2
:100C2000B88D59961C921E925897EFCEAF89B88D09
:100C30005B961C921E925A97FDCEFB019183808396
:100C40000895CF92DF92EF92FF926B017C019F7724
:100C500020E030E040E859E5B3D087FF26C020E02F
:100C600030E040E05FE3C701B601DFD187FD0CC093
:100C700020E030E040E05FE3C701B6012AD0FF90FA
:100C8000EF90DF90CF9009C120E030E040E05FEBD3
:100C9000C701B601CAD118167CF420E030E0A901E2
:100CA000C701B601C6D16B017C01C701B601FF9037
:100CB000EF90DF90CF90089520E030E040E05FE3D8
:100CC000C701B60105D0FF90EF90DF90CF9065C0CF
:100CD0005058BB27AA270ED057C148D130F04DD16C
:100CE00020F031F49F3F11F41EF43DC10EF4E09565
:100CF000E7FB0AC1E92F59D180F3BA1762077307DE
:100D00008407950718F071F49EF588C10EF4E095FC
:100D10000B2EBA2FA02D0B01B90190010C01CA01B5
:100D2000A0011124FF27591B99F0593F50F4503E60
:100D300068F11A16F040A22F232F342F4427585F52
:100D4000F3CF469537952795A795F0405395C9F76A
:100D50007EF41F16BA0B620B730B840BBAF0915022
:100D6000A1F0FF0FBB1F661F771F881FC2F70EC0C1
:100D7000BA0F621F731F841F48F487957795679594
:100D8000B795F7959E3F08F0B3CF9395880F08F07D
:100D90009927EE0F97958795089529D180F09F3771
:100DA00040F491110EF43BC160E070E080E89FE3F5
:100DB000089526F01B16611D711D811DABC0C5C0B5
:100DC0007FD008F481E00895F8D088F09F5790F024
:100DD000B92F9927B751A0F0D1F0660F771F881F60
:100DE000991F1AF0BA95C9F712C0B13081F016D127
:100DF000B1E0089513C1672F782F8827B85F39F0C5
:100E0000B93FCCF3869577956795B395D9F73EF4BE
:100E100090958095709561957F4F8F4F9F4F089566
:100E2000E89409C097FB3EF4909580957095619584
:100E30007F4F8F4F9F4F9923A9F0F92F96E9BB273A
:100E40009395F695879577956795B795F111F8CFB6
:100E5000FAF4BB0F11F460FF1BC06F5F7F4F8F4F21
:100E60009F4F16C0882311F096E911C0772321F017
:100E70009EE8872F762F05C0662371F096E8862FAF
:100E800070E060E02AF09A95660F771F881FDAF706
:100E9000880F9695879597F90895A9D080F09F3788
:100EA00040F491110EF0BBC060E070E080E89FEB71
:100EB000089526F41B16611D711D811D2BC045C0B0
:100EC000990F0008550FAA0BE0E8FEEF161617065B
:100ED000E807F907C0F012161306E407F50798F0C3
:100EE000621B730B840B950B39F40A2661F0232BDC
:100EF000242B252B21F408950A2609F4A140A69558
:100F00008FEF811D811D089597F99F6780E870E03C
:100F100060E00895882371F4772321F09850872B9F
:100F2000762F07C0662311F499270DC09051862BA8
:100F300070E060E02AF09A95660F771F881FDAF755
:100F4000880F9695879597F908959F3F31F09150B6
:100F500020F4879577956795B795880F911D96959D
:100F6000879597F908959FEF80EC089500240A94DF
:100F70001616170618060906089500240A94121674
:100F80001306140605060895092E0394000C11F4A7
:100F9000882352F0BB0F40F4BF2B11F460FF04C054
:100FA0006F5F7F4F8F4F9F4F089557FD9058440FAD
:100FB000551F59F05F3F71F04795880F97FB991FB8
:100FC00061F09F3F79F08795089512161306140675
:100FD000551FF2CF4695F1DF08C016161706180602
:100FE000991FF1CF86957105610508940895E5DF95
:100FF000A0F0BEE7B91788F4BB279F3860F4161637
:10100000B11D672F782F8827985FF7CF8695779542
:101010006795B11D93959639C8F30895E894BB2759
:1010200066277727CB0197F908954ADF08F48FEFF9
:1010300008950BD0A9CF9ADF28F09FDF18F09523F1
:1010400009F062CF90CF1124EACFAFDFA0F3959FD4
:10105000D1F3950F50E0551F629FF001729FBB279F
:10106000F00DB11D639FAA27F00DB11DAA1F649F4B
:101070006627B00DA11D661F829F2227B00DA11DFE
:10108000621F739FB00DA11D621F839FA00D611D84
:10109000221F749F3327A00D611D231F849F600DA5
:1010A000211D822F762F6A2F11249F5750408AF0DE
:1010B000E1F088234AF0EE0FFF1FBB1F661F771F6A
:1010C000881F91505040A9F79E3F510570F01CCFEA
:1010D000A6CF5F3FECF3983EDCF386957795679556
:1010E000B795F795E7959F5FC1F7FE2B880F911D88
:1010F0009695879597F908951F920F920FB60F92C4
:1011000011242F933F938F939F93AF93BF9380911D
:10111000780190917901A0917A01B0917B01309191
:10112000770123E0230F2D3758F50196A11DB11D3E
:10113000209377018093780190937901A0937A01AD
:10114000B0937B0180917C0190917D01A0917E0103
:10115000B0917F010196A11DB11D80937C019093F8
:101160007D01A0937E01B0937F01BF91AF919F91CC
:101170008F913F912F910F900FBE0F901F90189558
:1011800026E8230F0296A11DB11DD2CF789484B515
:10119000826084BD84B5816084BD85B5826085BD73
:1011A00085B5816085BDEEE6F0E080818160808359
:1011B000E1E8F0E01082808182608083808181603C
:1011C0008083E0E8F0E0808181608083E1EBF0E003
:1011D000808184608083E0EBF0E0808181608083A7
:1011E000EAE7F0E080818460808380818260808390
:1011F0008081816080838081806880831092C100BB
:1012000008958E3008F08E502091490190E4299F76
:10121000900111248770822B80937C0080917A004A
:10122000806480937A0080917A0086FDFCCF809163
:101230007800909179000895833081F028F481300E
:1012400099F08230A9F008958730A9F08830C9F06C
:101250008430B1F4809180008F7D03C08091800044
:101260008F7780938000089584B58F7784BD08952B
:1012700084B58F7DFBCF8091B0008F778093B000D5
:1012800008958091B0008F7DF9CFCF93DF9390E0E8
:10129000FC01E458FF4F249180579F4FFC0184913B
:1012A0008823C9F090E0880F991FFC01E255FF4F99
:1012B000A591B491FC01EC55FF4FC591D4916111FA
:1012C0000DC09FB7F8948C91209582238C938881D0
:1012D000282328839FBFDF91CF910895623051F476
:1012E0009FB7F8943C91822F809583238C93E8815B
:1012F0002E2BEFCF8FB7F894EC912E2B2C938FBF22
:10130000EACF1F93CF93DF93282F30E0F901E859FC
:10131000FF4F8491F901E458FF4FD491F901E05750
:10132000FF4FC491CC23A1F0162F811185DFEC2F44
:10133000F0E0EE0FFF1FEC55FF4FA591B4918FB772
:10134000F894EC91111108C0D095DE23DC938FBF87
:10135000DF91CF911F910895DE2BF8CFFC01918D85
:10136000228D892F90E0805C9F4F821B91098F73A3
:1013700099270895FC01918D828D981731F0828D07
:10138000E80FF11D858D90E008958FEF9FEF089590
:10139000FC01918D828D981761F0A28DAE0FBF2F49
:1013A000B11D5D968C91928D9F5F9F73928F90E09F
:1013B00008958FEF9FEF0895FC01538D448D252FE5
:1013C00030E0842F90E0821B930B541710F0CF96DF
:1013D000089501970895FC01A48DA80FB92FB11DA0
:1013E000A35ABF4F2C91848D90E001968F7399275B
:1013F000848FA689B7892C93A089B1898C91837039
:1014000080648C93938D848D981306C00288F38931
:10141000E02D80818F7D80830895CF93DF93EC0151
:10142000888D8823B1F0AA89BB89E889F9898C91D4
:1014300085FD03C0808186FD0CC00FB607FCF7CF89
:101440008C9185FFF2CF808185FFEDCFCE01C3DF88
:10145000EACFDF91CF910895EF92FF920F931F9300
:10146000CF93DF93EC0181E0888F9B8D8C8D981357
:101470001AC0E889F989808185FF15C09FB7F89463
:10148000EE89FF896083E889F989808183708064AF
:1014900080839FBF81E090E0DF91CF911F910F91FA
:1014A000FF90EF900895F62E0B8D10E00F5F1F4F09
:1014B0000F731127E02E8C8D8E110BC00FB607FC19
:1014C000FACFE889F989808185FFF5CFCE0183DFE6
:1014D000F2CFEB8DEC0FFD2FF11DE35AFF4FF082A1
:1014E0009FB7F8940B8FEA89FB8980818062D0CF07
:1014F000CF92DF92EF92FF921F93CF93DF93EC0195
:101500006A017B01122FE889F98982E08083C11486
:1015100081EED806E104F10499F060E079E08DE312
:1015200090E0A7019601F5D02150310941095109F8
:101530005695479537952795211580E1380790F006
:10154000E889F989108260E874E88EE190E0A701EB
:101550009601DFD02150310941095109569547952F
:1015600037952795EC85FD853083EE85FF852083B3
:10157000188EEC89FD891083EA89FB89808180615E
:101580008083EA89FB89808188608083EA89FB897E
:10159000808180688083EA89FB8980818F7D808358
:1015A000DF91CF911F91FF90EF90DF90CF90089542
:1015B0001F920F920FB60F9211242F938F939F9328
:1015C000EF93FF93E0919001F09191018081E09180
:1015D0009601F091970182FD1BC090818091990145
:1015E0008F5F8F7320919A01821741F0E0919901EA
:1015F000F0E0E058FE4F958F80939901FF91EF91B5
:101600009F918F912F910F900FBE0F901F90189563
:101610008081F4CF1F920F920FB60F9211242F9357
:101620003F934F935F936F937F938F939F93AF936A
:10163000BF93EF93FF9380E891E0CDDEFF91EF91B0
:10164000BF91AF919F918F917F916F915F914F91DA
:101650003F912F910F900FBE0F901F901895E0E8CB
:10166000F1E01382128288EE93E0A0E0B0E0848380
:101670009583A683B78380E591E09183808385EC91
:1016800090E09587848784EC90E09787868780EC4C
:1016900090E0918B808B81EC90E0938B828B82EC3D
:1016A00090E0958B848B86EC90E0978B868B118EE7
:1016B000128E138E148E0895AF92BF92CF92DF9246
:1016C000EF92FF920F931F93CF93DF936C017B01F7
:1016D0008B01040F151FEB015E01AE18BF08C01788
:1016E000D10759F06991D601ED91FC910190F081FB
:1016F000E02DC6010995892B79F7C501DF91CF91BE
:101700001F910F91FF90EF90DF90CF90BF90AF901F
:101710000895A1E21A2EAA1BBB1BFD010DC0AA1F32
:10172000BB1FEE1FFF1FA217B307E407F50720F04A
:10173000A21BB30BE40BF50B661F771F881F991FC5
:101740001A9469F760957095809590959B01AC010E
:10175000BD01CF010895EE0FFF1F0590F491E02D1C
:061760000994F894FFCF8C
:10176600000080BF000080BF0A28A03B0000C040E8
:10177600000070C10A28A03B0000C040000070C1F4
:101786000000000000000000000000000000000053
:101796000000007A440000000000007A4400007A4D
:1017A600440000000000007A4401670100000000C8
:0E17B6002C0A5C0BDC090D0AAE09C809BA0941
:00000001FF
